{
  "contractName": "User",
  "abi": [
    {
      "constant": true,
      "inputs": [
        {
          "name": "",
          "type": "uint256"
        }
      ],
      "name": "gamelist",
      "outputs": [
        {
          "name": "id",
          "type": "uint256"
        },
        {
          "name": "title",
          "type": "string"
        }
      ],
      "payable": false,
      "stateMutability": "view",
      "type": "function"
    },
    {
      "constant": true,
      "inputs": [
        {
          "name": "",
          "type": "uint256"
        }
      ],
      "name": "friendlist",
      "outputs": [
        {
          "name": "",
          "type": "address"
        }
      ],
      "payable": false,
      "stateMutability": "view",
      "type": "function"
    },
    {
      "constant": true,
      "inputs": [
        {
          "name": "",
          "type": "uint256"
        }
      ],
      "name": "teamlist",
      "outputs": [
        {
          "name": "name",
          "type": "string"
        },
        {
          "name": "id",
          "type": "uint256"
        }
      ],
      "payable": false,
      "stateMutability": "view",
      "type": "function"
    },
    {
      "inputs": [],
      "payable": false,
      "stateMutability": "nonpayable",
      "type": "constructor"
    },
    {
      "constant": true,
      "inputs": [],
      "name": "getOwner",
      "outputs": [
        {
          "name": "",
          "type": "address"
        }
      ],
      "payable": false,
      "stateMutability": "view",
      "type": "function"
    },
    {
      "constant": true,
      "inputs": [],
      "name": "getfriendnum",
      "outputs": [
        {
          "name": "",
          "type": "uint256"
        }
      ],
      "payable": false,
      "stateMutability": "view",
      "type": "function"
    },
    {
      "constant": true,
      "inputs": [
        {
          "name": "friendaddr",
          "type": "address"
        }
      ],
      "name": "isfriend",
      "outputs": [
        {
          "name": "",
          "type": "bool"
        }
      ],
      "payable": false,
      "stateMutability": "view",
      "type": "function"
    },
    {
      "constant": false,
      "inputs": [
        {
          "name": "newfriend",
          "type": "address"
        }
      ],
      "name": "addfriend",
      "outputs": [],
      "payable": false,
      "stateMutability": "nonpayable",
      "type": "function"
    },
    {
      "constant": false,
      "inputs": [
        {
          "name": "friendaddr",
          "type": "address"
        }
      ],
      "name": "deletefriend",
      "outputs": [],
      "payable": false,
      "stateMutability": "nonpayable",
      "type": "function"
    },
    {
      "constant": true,
      "inputs": [
        {
          "name": "friendcount",
          "type": "uint256"
        }
      ],
      "name": "getfriend",
      "outputs": [
        {
          "name": "",
          "type": "address"
        }
      ],
      "payable": false,
      "stateMutability": "view",
      "type": "function"
    },
    {
      "constant": true,
      "inputs": [
        {
          "name": "amount",
          "type": "uint256"
        }
      ],
      "name": "checkmoney",
      "outputs": [
        {
          "name": "",
          "type": "bool"
        }
      ],
      "payable": false,
      "stateMutability": "view",
      "type": "function"
    },
    {
      "constant": true,
      "inputs": [],
      "name": "getName",
      "outputs": [
        {
          "name": "",
          "type": "string"
        }
      ],
      "payable": false,
      "stateMutability": "view",
      "type": "function"
    },
    {
      "constant": false,
      "inputs": [
        {
          "name": "newName",
          "type": "string"
        },
        {
          "name": "newAge",
          "type": "uint256"
        }
      ],
      "name": "setProfile",
      "outputs": [],
      "payable": false,
      "stateMutability": "nonpayable",
      "type": "function"
    },
    {
      "constant": true,
      "inputs": [],
      "name": "getAge",
      "outputs": [
        {
          "name": "",
          "type": "uint256"
        }
      ],
      "payable": false,
      "stateMutability": "view",
      "type": "function"
    },
    {
      "constant": true,
      "inputs": [],
      "name": "getMoney",
      "outputs": [
        {
          "name": "",
          "type": "uint256"
        }
      ],
      "payable": false,
      "stateMutability": "view",
      "type": "function"
    },
    {
      "constant": false,
      "inputs": [
        {
          "name": "amount",
          "type": "uint256"
        }
      ],
      "name": "pay",
      "outputs": [
        {
          "name": "",
          "type": "bool"
        }
      ],
      "payable": false,
      "stateMutability": "nonpayable",
      "type": "function"
    },
    {
      "constant": false,
      "inputs": [
        {
          "name": "amount",
          "type": "uint256"
        }
      ],
      "name": "deposit",
      "outputs": [],
      "payable": false,
      "stateMutability": "nonpayable",
      "type": "function"
    },
    {
      "constant": true,
      "inputs": [
        {
          "name": "teamid",
          "type": "uint256"
        }
      ],
      "name": "isteam",
      "outputs": [
        {
          "name": "",
          "type": "bool"
        }
      ],
      "payable": false,
      "stateMutability": "view",
      "type": "function"
    },
    {
      "constant": true,
      "inputs": [
        {
          "name": "gameid",
          "type": "uint256"
        }
      ],
      "name": "isgame",
      "outputs": [
        {
          "name": "",
          "type": "bool"
        }
      ],
      "payable": false,
      "stateMutability": "view",
      "type": "function"
    },
    {
      "constant": true,
      "inputs": [
        {
          "name": "gameid",
          "type": "uint256"
        },
        {
          "name": "teamid",
          "type": "uint256"
        }
      ],
      "name": "isingame",
      "outputs": [
        {
          "name": "",
          "type": "bool"
        }
      ],
      "payable": false,
      "stateMutability": "view",
      "type": "function"
    },
    {
      "constant": false,
      "inputs": [
        {
          "name": "newteamid",
          "type": "uint256"
        }
      ],
      "name": "addteam",
      "outputs": [],
      "payable": false,
      "stateMutability": "nonpayable",
      "type": "function"
    },
    {
      "constant": false,
      "inputs": [
        {
          "name": "gameid",
          "type": "uint256"
        },
        {
          "name": "newteam1",
          "type": "uint256"
        },
        {
          "name": "newteam2",
          "type": "uint256"
        },
        {
          "name": "newtitle",
          "type": "string"
        }
      ],
      "name": "addgame",
      "outputs": [],
      "payable": false,
      "stateMutability": "nonpayable",
      "type": "function"
    },
    {
      "constant": false,
      "inputs": [
        {
          "name": "gameid",
          "type": "uint256"
        },
        {
          "name": "win1",
          "type": "bool"
        },
        {
          "name": "win2",
          "type": "bool"
        }
      ],
      "name": "setgameresult",
      "outputs": [],
      "payable": false,
      "stateMutability": "nonpayable",
      "type": "function"
    },
    {
      "constant": true,
      "inputs": [
        {
          "name": "gameid",
          "type": "uint256"
        },
        {
          "name": "teamid",
          "type": "uint256"
        }
      ],
      "name": "getgameresult",
      "outputs": [
        {
          "name": "",
          "type": "uint8"
        }
      ],
      "payable": false,
      "stateMutability": "view",
      "type": "function"
    },
    {
      "constant": true,
      "inputs": [
        {
          "name": "gameid",
          "type": "uint256"
        }
      ],
      "name": "getgametitle",
      "outputs": [
        {
          "name": "",
          "type": "string"
        }
      ],
      "payable": false,
      "stateMutability": "view",
      "type": "function"
    },
    {
      "constant": false,
      "inputs": [
        {
          "name": "gameid",
          "type": "uint256"
        },
        {
          "name": "newtitle",
          "type": "string"
        }
      ],
      "name": "setgametitle",
      "outputs": [],
      "payable": false,
      "stateMutability": "nonpayable",
      "type": "function"
    },
    {
      "constant": true,
      "inputs": [
        {
          "name": "teamid",
          "type": "uint256"
        }
      ],
      "name": "getteamname",
      "outputs": [
        {
          "name": "",
          "type": "string"
        }
      ],
      "payable": false,
      "stateMutability": "view",
      "type": "function"
    },
    {
      "constant": false,
      "inputs": [
        {
          "name": "teamid",
          "type": "uint256"
        },
        {
          "name": "newname",
          "type": "string"
        }
      ],
      "name": "setteamname",
      "outputs": [],
      "payable": false,
      "stateMutability": "nonpayable",
      "type": "function"
    },
    {
      "constant": true,
      "inputs": [],
      "name": "getteamnum",
      "outputs": [
        {
          "name": "",
          "type": "uint256"
        }
      ],
      "payable": false,
      "stateMutability": "view",
      "type": "function"
    },
    {
      "constant": true,
      "inputs": [],
      "name": "getgamenum",
      "outputs": [
        {
          "name": "",
          "type": "uint256"
        }
      ],
      "payable": false,
      "stateMutability": "view",
      "type": "function"
    },
    {
      "constant": false,
      "inputs": [
        {
          "name": "gameid",
          "type": "uint256"
        },
        {
          "name": "teamid",
          "type": "uint256"
        }
      ],
      "name": "buyteamwin",
      "outputs": [],
      "payable": false,
      "stateMutability": "nonpayable",
      "type": "function"
    },
    {
      "constant": false,
      "inputs": [
        {
          "name": "gameid",
          "type": "uint256"
        },
        {
          "name": "teamid",
          "type": "uint256"
        }
      ],
      "name": "buyteamlose",
      "outputs": [],
      "payable": false,
      "stateMutability": "nonpayable",
      "type": "function"
    },
    {
      "constant": false,
      "inputs": [
        {
          "name": "gameid",
          "type": "uint256"
        }
      ],
      "name": "buygamedraw",
      "outputs": [],
      "payable": false,
      "stateMutability": "nonpayable",
      "type": "function"
    }
  ],
  "bytecode": "0x60806040523480156200001157600080fd5b5033600360006101000a81548173ffffffffffffffffffffffffffffffffffffffff021916908373ffffffffffffffffffffffffffffffffffffffff16021790555060646002819055506200007660006200058e640100000000026401000000009004565b620000c760006040805190810160405280600681526020017f4765726d616e000000000000000000000000000000000000000000000000000081525062000692640100000000026401000000009004565b620000e260016200058e640100000000026401000000009004565b6200013360016040805190810160405280600981526020017f417267656e74696e61000000000000000000000000000000000000000000000081525062000692640100000000026401000000009004565b6200014e60026200058e640100000000026401000000009004565b6200019f60026040805190810160405280600581526020017f4c616b657200000000000000000000000000000000000000000000000000000081525062000692640100000000026401000000009004565b620001ba60036200058e640100000000026401000000009004565b6200020b60036040805190810160405280600881526020017f57617272696f727300000000000000000000000000000000000000000000000081525062000692640100000000026401000000009004565b6200022660046200058e640100000000026401000000009004565b6200027760046040805190810160405280600981526020017f436176616c69657273000000000000000000000000000000000000000000000081525062000692640100000000026401000000009004565b6200029260056200058e640100000000026401000000009004565b620002e360056040805190810160405280600581526020017f42756c6c7300000000000000000000000000000000000000000000000000000081525062000692640100000000026401000000009004565b620002fe60066200058e640100000000026401000000009004565b6200034f60066040805190810160405280600981526020017f42617263656c6f6e61000000000000000000000000000000000000000000000081525062000692640100000000026401000000009004565b6200036a60076200058e640100000000026401000000009004565b620003bb60076040805190810160405280600b81526020017f5265616c204d616472696400000000000000000000000000000000000000000081525062000692640100000000026401000000009004565b6200040f60008060016040805190810160405280600581526020017f47616d6531000000000000000000000000000000000000000000000000000000815250620007ae640100000000026401000000009004565b6200042d600080600062000a50640100000000026401000000009004565b620004826001600260036040805190810160405280600581526020017f47616d6532000000000000000000000000000000000000000000000000000000815250620007ae640100000000026401000000009004565b620004a0600180600062000a50640100000000026401000000009004565b620004f56002600460056040805190810160405280600581526020017f47616d6533000000000000000000000000000000000000000000000000000000815250620007ae640100000000026401000000009004565b6200051460026001600062000a50640100000000026401000000009004565b620005696003600660076040805190810160405280600581526020017f47616d6534000000000000000000000000000000000000000000000000000000815250620007ae640100000000026401000000009004565b6200058860036001600062000a50640100000000026401000000009004565b62000f80565b6200059862000c9b565b81620005b38162000bd5640100000000026401000000009004565b15151562000629576040517f08c379a00000000000000000000000000000000000000000000000000000000081526004018080602001828103825260168152602001807f546865207465616d20616c72656164792065786973740000000000000000000081525060200191505060405180910390fd5b828260200181815250506005829080600181540180825580915050906001820390600052602060002090600202016000909192909190915060008201518160000190805190602001906200067f92919062000cb5565b5060208201518160010155505050505050565b600082620006af8162000bd5640100000000026401000000009004565b151562000724576040517f08c379a00000000000000000000000000000000000000000000000000000000081526004018080602001828103825260178152602001807f546865207465616d20646f6573206e6f7420657869737400000000000000000081525060200191505060405180910390fd5b600091505b600580549050821015620007a857836005838154811015156200074857fe5b90600052602060002090600202016001015414156200079a57826005838154811015156200077257fe5b906000526020600020906002020160000190805190602001906200079892919062000d3c565b505b818060010192505062000729565b50505050565b620007b862000dc3565b84620007d38162000c38640100000000026401000000009004565b15151562000849576040517f08c379a00000000000000000000000000000000000000000000000000000000081526004018080602001828103825260168152602001807f5468652067616d6520616c72656164792065786973740000000000000000000081525060200191505060405180910390fd5b84620008648162000bd5640100000000026401000000009004565b1515620008d9576040517f08c379a00000000000000000000000000000000000000000000000000000000081526004018080602001828103825260178152602001807f546865207465616d20646f6573206e6f7420657869737400000000000000000081525060200191505060405180910390fd5b84620008f48162000bd5640100000000026401000000009004565b151562000969576040517f08c379a00000000000000000000000000000000000000000000000000000000081526004018080602001828103825260178152602001807f546865207465616d20646f6573206e6f7420657869737400000000000000000081525060200191505060405180910390fd5b8784600001818152505086846040015160006002811015156200098857fe5b6020020181815250508584604001516001600281101515620009a657fe5b6020020181815250508484602001819052506006849080600181540180825580915050906001820390600052602060002090600502016000909192909190915060008201518160000155602082015181600101908051906020019062000a0e92919062000cb5565b5060408201518160020190600262000a2892919062000dfc565b5060608201518160040190600262000a4292919062000e41565b505050505050505050505050565b60008362000a6d8162000c38640100000000026401000000009004565b151562000ae2576040517f08c379a00000000000000000000000000000000000000000000000000000000081526004018080602001828103825260178152602001807f5468652067616d6520646f6573206e6f7420657869737400000000000000000081525060200191505060405180910390fd5b600091505b60068054905082101562000bce578460068381548110151562000b0657fe5b906000526020600020906005020160000154141562000bc0578360068381548110151562000b3057fe5b9060005260206000209060050201600401600060028110151562000b5057fe5b602091828204019190066101000a81548160ff0219169083151502179055508260068381548110151562000b8057fe5b9060005260206000209060050201600401600160028110151562000ba057fe5b602091828204019190066101000a81548160ff0219169083151502179055505b818060010192505062000ae7565b5050505050565b600080600090505b60058054905081101562000c2d578260058281548110151562000bfc57fe5b906000526020600020906002020160010154141562000c1f576001915062000c32565b808060010191505062000bdd565b600091505b50919050565b600080600090505b60068054905081101562000c90578260068281548110151562000c5f57fe5b906000526020600020906005020160000154141562000c82576001915062000c95565b808060010191505062000c40565b600091505b50919050565b604080519081016040528060608152602001600081525090565b828054600181600116156101000203166002900490600052602060002090601f016020900481019282601f1062000cf857805160ff191683800117855562000d29565b8280016001018555821562000d29579182015b8281111562000d2857825182559160200191906001019062000d0b565b5b50905062000d38919062000ee1565b5090565b828054600181600116156101000203166002900490600052602060002090601f016020900481019282601f1062000d7f57805160ff191683800117855562000db0565b8280016001018555821562000db0579182015b8281111562000daf57825182559160200191906001019062000d92565b5b50905062000dbf919062000ee1565b5090565b60c060405190810160405280600081526020016060815260200162000de762000f09565b815260200162000df662000f2b565b81525090565b826002810192821562000e2e579160200282015b8281111562000e2d57825182559160200191906001019062000e10565b5b50905062000e3d919062000ee1565b5090565b826002601f0160209004810192821562000ece5791602002820160005b8382111562000e9d57835183826101000a81548160ff021916908315150217905550926020019260010160208160000104928301926001030262000e5e565b801562000ecc5782816101000a81549060ff021916905560010160208160000104928301926001030262000e9d565b505b50905062000edd919062000f4d565b5090565b62000f0691905b8082111562000f0257600081600090555060010162000ee8565b5090565b90565b6040805190810160405280600290602082028038833980820191505090505090565b6040805190810160405280600290602082028038833980820191505090505090565b62000f7d91905b8082111562000f7957600081816101000a81549060ff02191690555060010162000f54565b5090565b90565b6134aa8062000f906000396000f300608060405260043610610196576000357c0100000000000000000000000000000000000000000000000000000000900463ffffffff168063021260b21461019b57806303a6f3f0146101c65780630e93a7c21461020b5780631096c7c8146102b8578063154a8ff2146102ef57806317d7de7c14610334578063185c7a20146103c45780631c318e291461043757806321141f701461047c5780633185ba0d146104e95780634294d40b1461058f5780635a22baac146105d257806360ca204414610659578063625fc5351461069e5780636639a076146107115780636bba01411461077e5780637bd3e54f146107a9578063817602bc1461081c57806383ff627a146108c2578063893d20e8146108f95780638dbcc65314610950578063967e6e65146109ab578063980a46cf146109d657806398e1b41014610a255780639b690dfa14610a505780639c898ccc14610afd578063ad9bb85b14610b56578063b6b55f2514610b81578063c290d69114610bae578063ce1a560c14610bf3578063ecd15d0a14610c20578063fd33cf4514610c4d575b600080fd5b3480156101a757600080fd5b506101b0610c90565b6040518082815260200191505060405180910390f35b3480156101d257600080fd5b506101f160048036038101908080359060200190929190505050610c9d565b604051808215151515815260200191505060405180910390f35b34801561021757600080fd5b5061023660048036038101908080359060200190929190505050610d71565b6040518083815260200180602001828103825283818151815260200191508051906020019080838360005b8381101561027c578082015181840152602081019050610261565b50505050905090810190601f1680156102a95780820380516001836020036101000a031916815260200191505b50935050505060405180910390f35b3480156102c457600080fd5b506102ed6004803603810190808035906020019092919080359060200190929190505050610e3c565b005b3480156102fb57600080fd5b5061033260048036038101908080359060200190929190803515159060200190929190803515159060200190929190505050611030565b005b34801561034057600080fd5b5061034961119b565b6040518080602001828103825283818151815260200191508051906020019080838360005b8381101561038957808201518184015260208101905061036e565b50505050905090810190601f1680156103b65780820380516001836020036101000a031916815260200191505b509250505060405180910390f35b3480156103d057600080fd5b5061043560048036038101908080359060200190929190803590602001908201803590602001908080601f016020809104026020016040519081016040528093929190818152602001838380828437820191505050505050919291929050505061123d565b005b34801561044357600080fd5b5061046260048036038101908080359060200190929190505050611340565b604051808215151515815260200191505060405180910390f35b34801561048857600080fd5b506104a76004803603810190808035906020019092919050505061139e565b604051808273ffffffffffffffffffffffffffffffffffffffff1673ffffffffffffffffffffffffffffffffffffffff16815260200191505060405180910390f35b3480156104f557600080fd5b50610514600480360381019080803590602001909291905050506113dc565b6040518080602001828103825283818151815260200191508051906020019080838360005b83811015610554578082015181840152602081019050610539565b50505050905090810190601f1680156105815780820380516001836020036101000a031916815260200191505b509250505060405180910390f35b34801561059b57600080fd5b506105d0600480360381019080803573ffffffffffffffffffffffffffffffffffffffff16906020019092919050505061156d565b005b3480156105de57600080fd5b50610657600480360381019080803590602001909291908035906020019092919080359060200190929190803590602001908201803590602001908080601f016020809104026020016040519081016040528093929190818152602001838380828437820191505050505050919291929050505061179b565b005b34801561066557600080fd5b50610684600480360381019080803590602001909291905050506119fd565b604051808215151515815260200191505060405180910390f35b3480156106aa57600080fd5b5061070f600480360381019080803590602001908201803590602001908080601f016020809104026020016040519081016040528093929190818152602001838380828437820191505050505050919291929080359060200190929190505050611a5b565b005b34801561071d57600080fd5b5061073c60048036038101908080359060200190929190505050611b42565b604051808273ffffffffffffffffffffffffffffffffffffffff1673ffffffffffffffffffffffffffffffffffffffff16815260200191505060405180910390f35b34801561078a57600080fd5b50610793611cf0565b6040518082815260200191505060405180910390f35b3480156107b557600080fd5b5061081a60048036038101908080359060200190929190803590602001908201803590602001908080601f0160208091040260200160405190810160405280939291908181526020018383808284378201915050505050509192919290505050611cfd565b005b34801561082857600080fd5b5061084760048036038101908080359060200190929190505050611e00565b6040518080602001828103825283818151815260200191508051906020019080838360005b8381101561088757808201518184015260208101905061086c565b50505050905090810190601f1680156108b45780820380516001836020036101000a031916815260200191505b509250505060405180910390f35b3480156108ce57600080fd5b506108f76004803603810190808035906020019092919080359060200190929190505050611f91565b005b34801561090557600080fd5b5061090e612185565b604051808273ffffffffffffffffffffffffffffffffffffffff1673ffffffffffffffffffffffffffffffffffffffff16815260200191505060405180910390f35b34801561095c57600080fd5b50610991600480360381019080803573ffffffffffffffffffffffffffffffffffffffff1690602001909291905050506121af565b604051808215151515815260200191505060405180910390f35b3480156109b757600080fd5b506109c0612317565b6040518082815260200191505060405180910390f35b3480156109e257600080fd5b50610a0b6004803603810190808035906020019092919080359060200190929190505050612321565b604051808215151515815260200191505060405180910390f35b348015610a3157600080fd5b50610a3a6123e5565b6040518082815260200191505060405180910390f35b348015610a5c57600080fd5b50610a7b600480360381019080803590602001909291905050506123ef565b6040518080602001838152602001828103825284818151815260200191508051906020019080838360005b83811015610ac1578082015181840152602081019050610aa6565b50505050905090810190601f168015610aee5780820380516001836020036101000a031916815260200191505b50935050505060405180910390f35b348015610b0957600080fd5b50610b3260048036038101908080359060200190929190803590602001909291905050506124ba565b60405180826002811115610b4257fe5b60ff16815260200191505060405180910390f35b348015610b6257600080fd5b50610b6b6129ab565b6040518082815260200191505060405180910390f35b348015610b8d57600080fd5b50610bac600480360381019080803590602001909291905050506129b8565b005b348015610bba57600080fd5b50610bd960048036038101908080359060200190929190505050612a90565b604051808215151515815260200191505060405180910390f35b348015610bff57600080fd5b50610c1e60048036038101908080359060200190929190505050612c03565b005b348015610c2c57600080fd5b50610c4b60048036038101908080359060200190929190505050612d48565b005b348015610c5957600080fd5b50610c8e600480360381019080803573ffffffffffffffffffffffffffffffffffffffff169060200190929190505050612e36565b005b6000600680549050905090565b60003373ffffffffffffffffffffffffffffffffffffffff16600360009054906101000a900473ffffffffffffffffffffffffffffffffffffffff1673ffffffffffffffffffffffffffffffffffffffff16141515610d64576040517f08c379a00000000000000000000000000000000000000000000000000000000081526004018080602001828103825260158152602001807f53656e646572206e6f7420617574686f72697a6564000000000000000000000081525060200191505060405180910390fd5b8160025410159050919050565b600681815481101515610d8057fe5b9060005260206000209060050201600091509050806000015490806001018054600181600116156101000203166002900480601f016020809104026020016040519081016040528092919081815260200182805460018160011615610100020316600290048015610e325780601f10610e0757610100808354040283529160200191610e32565b820191906000526020600020905b815481529060010190602001808311610e1557829003601f168201915b5050505050905082565b81610e46816119fd565b1515610eba576040517f08c379a00000000000000000000000000000000000000000000000000000000081526004018080602001828103825260178152602001807f5468652067616d6520646f6573206e6f7420657869737400000000000000000081525060200191505060405180910390fd5b81610ec481611340565b1515610f38576040517f08c379a00000000000000000000000000000000000000000000000000000000081526004018080602001828103825260178152602001807f546865207465616d20646f6573206e6f7420657869737400000000000000000081525060200191505060405180910390fd5b8383610f448282612321565b1515610fde576040517f08c379a00000000000000000000000000000000000000000000000000000000081526004018080602001828103825260248152602001807f546865207465616d206973206e6f7420696e766f6c76656420696e207468652081526020017f67616d650000000000000000000000000000000000000000000000000000000081525060400191505060405180910390fd5b60011515610fec6032612a90565b15151415611028576000600281111561100157fe5b61100b87876124ba565b600281111561101657fe5b14156110275761102660646129b8565b5b5b505050505050565b60008361103c816119fd565b15156110b0576040517f08c379a00000000000000000000000000000000000000000000000000000000081526004018080602001828103825260178152602001807f5468652067616d6520646f6573206e6f7420657869737400000000000000000081525060200191505060405180910390fd5b600091505b60068054905082101561119457846006838154811015156110d257fe5b906000526020600020906005020160000154141561118757836006838154811015156110fa57fe5b9060005260206000209060050201600401600060028110151561111957fe5b602091828204019190066101000a81548160ff0219169083151502179055508260068381548110151561114857fe5b9060005260206000209060050201600401600160028110151561116757fe5b602091828204019190066101000a81548160ff0219169083151502179055505b81806001019250506110b5565b5050505050565b606060008054600181600116156101000203166002900480601f0160208091040260200160405190810160405280929190818152602001828054600181600116156101000203166002900480156112335780601f1061120857610100808354040283529160200191611233565b820191906000526020600020905b81548152906001019060200180831161121657829003601f168201915b5050505050905090565b600082611249816119fd565b15156112bd576040517f08c379a00000000000000000000000000000000000000000000000000000000081526004018080602001828103825260178152602001807f5468652067616d6520646f6573206e6f7420657869737400000000000000000081525060200191505060405180910390fd5b600091505b60068054905082101561133a57836006838154811015156112df57fe5b906000526020600020906005020160000154141561132d578260068381548110151561130757fe5b9060005260206000209060050201600101908051906020019061132b929190613191565b505b81806001019250506112c2565b50505050565b600080600090505b600580549050811015611393578260058281548110151561136557fe5b90600052602060002090600202016001015414156113865760019150611398565b8080600101915050611348565b600091505b50919050565b6004818154811015156113ad57fe5b906000526020600020016000915054906101000a900473ffffffffffffffffffffffffffffffffffffffff1681565b60606000826113ea81611340565b151561145e576040517f08c379a00000000000000000000000000000000000000000000000000000000081526004018080602001828103825260178152602001807f546865207465616d20646f6573206e6f7420657869737400000000000000000081525060200191505060405180910390fd5b600091505b600580549050821015611565578360058381548110151561148057fe5b9060005260206000209060020201600101541415611558576005828154811015156114a757fe5b90600052602060002090600202016000018054600181600116156101000203166002900480601f01602080910402602001604051908101604052809291908181526020018280546001816001161561010002031660029004801561154c5780601f106115215761010080835404028352916020019161154c565b820191906000526020600020905b81548152906001019060200180831161152f57829003601f168201915b50505050509250611566565b8180600101925050611463565b5b5050919050565b3373ffffffffffffffffffffffffffffffffffffffff16600360009054906101000a900473ffffffffffffffffffffffffffffffffffffffff1673ffffffffffffffffffffffffffffffffffffffff16141515611632576040517f08c379a00000000000000000000000000000000000000000000000000000000081526004018080602001828103825260158152602001807f53656e646572206e6f7420617574686f72697a6564000000000000000000000081525060200191505060405180910390fd5b8061163c816121af565b1580156116975750600360009054906101000a900473ffffffffffffffffffffffffffffffffffffffff1673ffffffffffffffffffffffffffffffffffffffff168173ffffffffffffffffffffffffffffffffffffffff1614155b1515611731576040517f08c379a000000000000000000000000000000000000000000000000000000000815260040180806020018281038252603e8152602001807f546865207573657220697320616c7265616479206120667269656e64206f662081526020017f746865206f776e6572206f7220746865206f776e65722068696d73656c66000081525060400191505060405180910390fd5b60048290806001815401808255809150509060018203906000526020600020016000909192909190916101000a81548173ffffffffffffffffffffffffffffffffffffffff021916908373ffffffffffffffffffffffffffffffffffffffff160217905550505050565b6117a3613211565b846117ad816119fd565b151515611822576040517f08c379a00000000000000000000000000000000000000000000000000000000081526004018080602001828103825260168152602001807f5468652067616d6520616c72656164792065786973740000000000000000000081525060200191505060405180910390fd5b8461182c81611340565b15156118a0576040517f08c379a00000000000000000000000000000000000000000000000000000000081526004018080602001828103825260178152602001807f546865207465616d20646f6573206e6f7420657869737400000000000000000081525060200191505060405180910390fd5b846118aa81611340565b151561191e576040517f08c379a00000000000000000000000000000000000000000000000000000000081526004018080602001828103825260178152602001807f546865207465616d20646f6573206e6f7420657869737400000000000000000081525060200191505060405180910390fd5b87846000018181525050868460400151600060028110151561193c57fe5b602002018181525050858460400151600160028110151561195957fe5b602002018181525050848460200181905250600684908060018154018082558091505090600182039060005260206000209060050201600090919290919091506000820151816000015560208201518160010190805190602001906119bf929190613246565b506040820151816002019060026119d79291906132c6565b506060820151816004019060026119ef929190613306565b505050505050505050505050565b600080600090505b600680549050811015611a505782600682815481101515611a2257fe5b9060005260206000209060050201600001541415611a435760019150611a55565b8080600101915050611a05565b600091505b50919050565b3373ffffffffffffffffffffffffffffffffffffffff16600360009054906101000a900473ffffffffffffffffffffffffffffffffffffffff1673ffffffffffffffffffffffffffffffffffffffff16141515611b20576040517f08c379a00000000000000000000000000000000000000000000000000000000081526004018080602001828103825260158152602001807f53656e646572206e6f7420617574686f72697a6564000000000000000000000081525060200191505060405180910390fd5b8160009080519060200190611b36929190613191565b50806001819055505050565b60003373ffffffffffffffffffffffffffffffffffffffff16600360009054906101000a900473ffffffffffffffffffffffffffffffffffffffff1673ffffffffffffffffffffffffffffffffffffffff16141515611c09576040517f08c379a00000000000000000000000000000000000000000000000000000000081526004018080602001828103825260158152602001807f53656e646572206e6f7420617574686f72697a6564000000000000000000000081525060200191505060405180910390fd5b81611c126129ab565b81101515611cae576040517f08c379a00000000000000000000000000000000000000000000000000000000081526004018080602001828103825260398152602001807f546865206e756d626572206973206c6172676572207468616e20746865206e7581526020017f6d626572206f6620667269656e647320796f7520686176652e0000000000000081525060400191505060405180910390fd5b600483815481101515611cbd57fe5b9060005260206000200160009054906101000a900473ffffffffffffffffffffffffffffffffffffffff16915050919050565b6000600580549050905090565b600082611d0981611340565b1515611d7d576040517f08c379a00000000000000000000000000000000000000000000000000000000081526004018080602001828103825260178152602001807f546865207465616d20646f6573206e6f7420657869737400000000000000000081525060200191505060405180910390fd5b600091505b600580549050821015611dfa5783600583815481101515611d9f57fe5b9060005260206000209060020201600101541415611ded5782600583815481101515611dc757fe5b90600052602060002090600202016000019080519060200190611deb929190613191565b505b8180600101925050611d82565b50505050565b6060600082611e0e816119fd565b1515611e82576040517f08c379a00000000000000000000000000000000000000000000000000000000081526004018080602001828103825260178152602001807f5468652067616d6520646f6573206e6f7420657869737400000000000000000081525060200191505060405180910390fd5b600091505b600680549050821015611f895783600683815481101515611ea457fe5b9060005260206000209060050201600001541415611f7c57600682815481101515611ecb57fe5b90600052602060002090600502016001018054600181600116156101000203166002900480601f016020809104026020016040519081016040528092919081815260200182805460018160011615610100020316600290048015611f705780601f10611f4557610100808354040283529160200191611f70565b820191906000526020600020905b815481529060010190602001808311611f5357829003601f168201915b50505050509250611f8a565b8180600101925050611e87565b5b5050919050565b81611f9b816119fd565b151561200f576040517f08c379a00000000000000000000000000000000000000000000000000000000081526004018080602001828103825260178152602001807f5468652067616d6520646f6573206e6f7420657869737400000000000000000081525060200191505060405180910390fd5b8161201981611340565b151561208d576040517f08c379a00000000000000000000000000000000000000000000000000000000081526004018080602001828103825260178152602001807f546865207465616d20646f6573206e6f7420657869737400000000000000000081525060200191505060405180910390fd5b83836120998282612321565b1515612133576040517f08c379a00000000000000000000000000000000000000000000000000000000081526004018080602001828103825260248152602001807f546865207465616d206973206e6f7420696e766f6c76656420696e207468652081526020017f67616d650000000000000000000000000000000000000000000000000000000081525060400191505060405180910390fd5b600115156121416032612a90565b1515141561217d576001600281111561215657fe5b61216087876124ba565b600281111561216b57fe5b141561217c5761217b60646129b8565b5b5b505050505050565b6000600360009054906101000a900473ffffffffffffffffffffffffffffffffffffffff16905090565b6000803373ffffffffffffffffffffffffffffffffffffffff16600360009054906101000a900473ffffffffffffffffffffffffffffffffffffffff1673ffffffffffffffffffffffffffffffffffffffff16141515612277576040517f08c379a00000000000000000000000000000000000000000000000000000000081526004018080602001828103825260158152602001807f53656e646572206e6f7420617574686f72697a6564000000000000000000000081525060200191505060405180910390fd5b600090505b60048054905081101561230c578273ffffffffffffffffffffffffffffffffffffffff166004828154811015156122af57fe5b9060005260206000200160009054906101000a900473ffffffffffffffffffffffffffffffffffffffff1673ffffffffffffffffffffffffffffffffffffffff1614156122ff5760019150612311565b808060010191505061227c565b600091505b50919050565b6000600154905090565b600080600090505b6006805490508110156123dd578360068281548110151561234657fe5b90600052602060002090600502016000015414156123d0578260068281548110151561236e57fe5b9060005260206000209060050201600201600060028110151561238d57fe5b015414806123c95750826006828154811015156123a657fe5b906000526020600020906005020160020160016002811015156123c557fe5b0154145b91506123de565b8080600101915050612329565b5b5092915050565b6000600254905090565b6005818154811015156123fe57fe5b9060005260206000209060020201600091509050806000018054600181600116156101000203166002900480601f0160208091040260200160405190810160405280929190818152602001828054600181600116156101000203166002900480156124aa5780601f1061247f576101008083540402835291602001916124aa565b820191906000526020600020905b81548152906001019060200180831161248d57829003601f168201915b5050505050908060010154905082565b60008083836124c98282612321565b1515612563576040517f08c379a00000000000000000000000000000000000000000000000000000000081526004018080602001828103825260248152602001807f546865207465616d206973206e6f7420696e766f6c76656420696e207468652081526020017f67616d650000000000000000000000000000000000000000000000000000000081525060400191505060405180910390fd5b8561256d816119fd565b15156125e1576040517f08c379a00000000000000000000000000000000000000000000000000000000081526004018080602001828103825260178152602001807f5468652067616d6520646f6573206e6f7420657869737400000000000000000081525060200191505060405180910390fd5b856125eb81611340565b151561265f576040517f08c379a00000000000000000000000000000000000000000000000000000000081526004018080602001828103825260178152602001807f546865207465616d20646f6573206e6f7420657869737400000000000000000081525060200191505060405180910390fd5b600094505b60068054905085101561299f578760068681548110151561268157fe5b906000526020600020906005020160000154141561299257866006868154811015156126a957fe5b906000526020600020906005020160020160006002811015156126c857fe5b0154141561283157600115156006868154811015156126e357fe5b9060005260206000209060050201600401600060028110151561270257fe5b602091828204019190069054906101000a900460ff16151514801561276e57506000151560068681548110151561273557fe5b9060005260206000209060050201600401600160028110151561275457fe5b602091828204019190069054906101000a900460ff161515145b1561277c57600095506129a0565b6000151560068681548110151561278f57fe5b906000526020600020906005020160040160006002811015156127ae57fe5b602091828204019190069054906101000a900460ff16151514801561281a5750600115156006868154811015156127e157fe5b9060005260206000209060050201600401600160028110151561280057fe5b602091828204019190069054906101000a900460ff161515145b1561282857600195506129a0565b600295506129a0565b6001151560068681548110151561284457fe5b9060005260206000209060050201600401600160028110151561286357fe5b602091828204019190069054906101000a900460ff1615151480156128cf57506000151560068681548110151561289657fe5b906000526020600020906005020160040160006002811015156128b557fe5b602091828204019190069054906101000a900460ff161515145b156128dd57600095506129a0565b600015156006868154811015156128f057fe5b9060005260206000209060050201600401600160028110151561290f57fe5b602091828204019190069054906101000a900460ff16151514801561297b57506001151560068681548110151561294257fe5b9060005260206000209060050201600401600060028110151561296157fe5b602091828204019190069054906101000a900460ff161515145b1561298957600195506129a0565b600295506129a0565b8480600101955050612664565b5b505050505092915050565b6000600480549050905090565b3373ffffffffffffffffffffffffffffffffffffffff16600360009054906101000a900473ffffffffffffffffffffffffffffffffffffffff1673ffffffffffffffffffffffffffffffffffffffff16141515612a7d576040517f08c379a00000000000000000000000000000000000000000000000000000000081526004018080602001828103825260158152602001807f53656e646572206e6f7420617574686f72697a6564000000000000000000000081525060200191505060405180910390fd5b8060026000828254019250508190555050565b60003373ffffffffffffffffffffffffffffffffffffffff16600360009054906101000a900473ffffffffffffffffffffffffffffffffffffffff1673ffffffffffffffffffffffffffffffffffffffff16141515612b57576040517f08c379a00000000000000000000000000000000000000000000000000000000081526004018080602001828103825260158152602001807f53656e646572206e6f7420617574686f72697a6564000000000000000000000081525060200191505060405180910390fd5b601260015410151515612bd2576040517f08c379a000000000000000000000000000000000000000000000000000000000815260040180806020018281038252601d8152602001807f546865206f776e6572206973206e6f7420616e206164756c742079657400000081525060200191505060405180910390fd5b612bdb82610c9d565b15612bf9578160026000828254039250508190555060019050612bfe565b600090505b919050565b600081612c0f816119fd565b1515612c83576040517f08c379a00000000000000000000000000000000000000000000000000000000081526004018080602001828103825260178152602001807f5468652067616d6520646f6573206e6f7420657869737400000000000000000081525060200191505060405180910390fd5b60011515612c916032612a90565b15151415612d4357600091505b600680549050821015612d425782600683815481101515612cbb57fe5b9060005260206000209060050201600001541415612d3557600280811115612cdf57fe5b612d1884600685815481101515612cf257fe5b90600052602060002090600502016002016000600281101515612d1157fe5b01546124ba565b6002811115612d2357fe5b1415612d3457612d3360646129b8565b5b5b8180600101925050612c9e565b5b505050565b612d5061339f565b81612d5a81611340565b151515612dcf576040517f08c379a00000000000000000000000000000000000000000000000000000000081526004018080602001828103825260168152602001807f546865207465616d20616c72656164792065786973740000000000000000000081525060200191505060405180910390fd5b82826020018181525050600582908060018154018082558091505090600182039060005260206000209060020201600090919290919091506000820151816000019080519060200190612e23929190613246565b5060208201518160010155505050505050565b6000803373ffffffffffffffffffffffffffffffffffffffff16600360009054906101000a900473ffffffffffffffffffffffffffffffffffffffff1673ffffffffffffffffffffffffffffffffffffffff16141515612efe576040517f08c379a00000000000000000000000000000000000000000000000000000000081526004018080602001828103825260158152602001807f53656e646572206e6f7420617574686f72697a6564000000000000000000000081525060200191505060405180910390fd5b82612f08816121af565b1515612fa2576040517f08c379a00000000000000000000000000000000000000000000000000000000081526004018080602001828103825260298152602001807f5468652075736572206973206e6f74206f6e65206f6620746865206f776e657281526020017f277320667269656e64000000000000000000000000000000000000000000000081525060400191505060405180910390fd5b60009250600091505b600160048054905003821015613175576000151583151514156130d3578373ffffffffffffffffffffffffffffffffffffffff16600483815481101515612fee57fe5b9060005260206000200160009054906101000a900473ffffffffffffffffffffffffffffffffffffffff1673ffffffffffffffffffffffffffffffffffffffff1614156130ce576001925060046001830181548110151561304b57fe5b9060005260206000200160009054906101000a900473ffffffffffffffffffffffffffffffffffffffff1660048381548110151561308557fe5b9060005260206000200160006101000a81548173ffffffffffffffffffffffffffffffffffffffff021916908373ffffffffffffffffffffffffffffffffffffffff1602179055505b613168565b6004600183018154811015156130e557fe5b9060005260206000200160009054906101000a900473ffffffffffffffffffffffffffffffffffffffff1660048381548110151561311f57fe5b9060005260206000200160006101000a81548173ffffffffffffffffffffffffffffffffffffffff021916908373ffffffffffffffffffffffffffffffffffffffff1602179055505b8180600101925050612fab565b600480548091906001900361318a91906133b9565b5050505050565b828054600181600116156101000203166002900490600052602060002090601f016020900481019282601f106131d257805160ff1916838001178555613200565b82800160010185558215613200579182015b828111156131ff5782518255916020019190600101906131e4565b5b50905061320d91906133e5565b5090565b60c060405190810160405280600081526020016060815260200161323361340a565b815260200161324061342c565b81525090565b828054600181600116156101000203166002900490600052602060002090601f016020900481019282601f1061328757805160ff19168380011785556132b5565b828001600101855582156132b5579182015b828111156132b4578251825591602001919060010190613299565b5b5090506132c291906133e5565b5090565b82600281019282156132f5579160200282015b828111156132f45782518255916020019190600101906132d9565b5b50905061330291906133e5565b5090565b826002601f0160209004810192821561338e5791602002820160005b8382111561335f57835183826101000a81548160ff0219169083151502179055509260200192600101602081600001049283019260010302613322565b801561338c5782816101000a81549060ff021916905560010160208160000104928301926001030261335f565b505b50905061339b919061344e565b5090565b604080519081016040528060608152602001600081525090565b8154818355818111156133e0578183600052602060002091820191016133df91906133e5565b5b505050565b61340791905b808211156134035760008160009055506001016133eb565b5090565b90565b6040805190810160405280600290602082028038833980820191505090505090565b6040805190810160405280600290602082028038833980820191505090505090565b61347b91905b8082111561347757600081816101000a81549060ff021916905550600101613454565b5090565b905600a165627a7a72305820b9b10bc8654c6eca49d99561c86e1b5cc537d71a9aa3a28ffb0f38f2014c096a0029",
  "source": "pragma solidity >= 0.4.0 <0.6.0;\n\ncontract User {\n    struct gameinfo {\n        uint id;\n        string title;\n        uint[2] teams;\n        bool[2] win;\n    }\n\n    struct teaminfo {\n        string name;\n        uint id;\n    }\n    string private username;\n    uint private age;\n    uint private money;\n    address private owner;\n    address[] public friendlist;\n    teaminfo[] public teamlist;\n    gameinfo[] public gamelist;\n    enum result{win, lose, draw}\n    \n    constructor () public {\n        owner = msg.sender;\n        money = 100;\n        addteam(0);\n        setteamname(0, \"German\");\n        addteam(1);\n        setteamname(1, \"Argentina\");\n        addteam(2);\n        setteamname(2, \"Laker\");\n        addteam(3);\n        setteamname(3, \"Warriors\");\n        addteam(4);\n        setteamname(4, \"Cavaliers\");\n        addteam(5);\n        setteamname(5, \"Bulls\");\n        addteam(6);\n        setteamname(6, \"Barcelona\");\n        addteam(7);\n        setteamname(7, \"Real Madrid\");\n        addgame(0, 0, 1, \"Game1\");\n        setgameresult(0, false, false);\n        addgame(1, 2, 3, \"Game2\");\n        setgameresult(1, true, false);\n        addgame(2, 4, 5, \"Game3\");\n        setgameresult(2, true, false);\n        addgame(3, 6, 7, \"Game4\");\n        setgameresult(3, true, false);\n    }\n\n    function getOwner() public view returns (address) {\n        return owner;\n    }\n    \n    modifier checkowner {\n        require(owner == msg.sender, \"Sender not authorized\");\n        _;\n    }\n    \n    modifier checkage {\n        require(age >= 18, \"The owner is not an adult yet\");\n        _;\n    }\n    \n    modifier checkfriend(address friendaddr) {\n        require(isfriend(friendaddr), \"The user is not one of the owner's friend\");\n        _;\n    }\n    \n    modifier checknotfriend(address friendaddr) {\n        require(!isfriend(friendaddr) && friendaddr != owner, \"The user is already a friend of the owner or the owner himself\");\n        _;\n    }\n\n    modifier checkfriendnum(uint friendcount) {\n        require(friendcount < getfriendnum(), \"The number is larger than the number of friends you have.\");\n        _;\n    }\n    \n    function getfriendnum() public view returns (uint) {\n        return friendlist.length;\n    }\n    \n    function isfriend(address friendaddr) public view checkowner returns (bool) {\n        for (uint i = 0; i < friendlist.length; i++) {\n            if (friendlist[i] == friendaddr) return true;\n        }\n        return false;\n    }\n    \n    function addfriend(address newfriend) public checkowner checknotfriend(newfriend) {\n        friendlist.push(newfriend);\n    }\n    \n    function deletefriend(address friendaddr) public checkowner checkfriend(friendaddr) {\n        bool flag = false;\n        for (uint i = 0; i < friendlist.length - 1; i++) {\n            if (flag == false) {\n                if (friendlist[i] == friendaddr) {\n                    flag = true;\n                    friendlist[i] = friendlist[i + 1];\n                }\n            }\n            else {\n                friendlist[i] = friendlist[i + 1];\n            }\n        }\n        friendlist.length--;\n    }\n\n    function getfriend(uint friendcount) public view checkowner checkfriendnum(friendcount) returns (address) {\n        return friendlist[friendcount];\n    }\n    \n    function checkmoney(uint amount) public view checkowner returns (bool) {\n        return money >= amount;\n    }\n    \n    function getName() public view returns (string memory) {\n        return username;\n    }\n    \n    function setProfile(string memory newName, uint newAge) public checkowner {\n        username = newName;\n        age = newAge;\n    }\n    \n    function getAge() public view returns (uint) {\n        return age;\n    }\n    \n    function getMoney() public view returns (uint) {\n        return money;\n    }\n    \n    function pay(uint amount) public checkowner checkage returns (bool) {\n        if (checkmoney(amount)) {\n            money -= amount;\n            return true;\n        }\n        else return false;\n    }\n    \n    function deposit(uint amount) public checkowner {\n        money += amount;\n    }\n\n    // Game part\n    modifier ingame(uint gameid, uint teamid) {\n        require(isingame(gameid, teamid), \"The team is not involved in the game\");\n        _;\n    }\n    \n    modifier teamnotexist(uint teamid) {\n        require(!isteam(teamid), \"The team already exist\");\n        _;\n    }\n    \n    modifier teamexist(uint teamid) {\n        require(isteam(teamid), \"The team does not exist\");\n        _;\n    }\n\n    modifier gamenotexist(uint gameid) {\n        require(!isgame(gameid), \"The game already exist\");\n        _;\n    }\n    \n    modifier gameexist(uint gameid) {\n        require(isgame(gameid), \"The game does not exist\");\n        _;\n    }\n\n    function isteam(uint teamid) public view returns (bool) {\n        for (uint i = 0; i < teamlist.length; i++) {\n            if (teamlist[i].id == teamid) return true;\n        }\n        return false;\n    }\n\n    function isgame(uint gameid) public view returns (bool) {\n        for (uint i = 0; i < gamelist.length; i++) {\n            if (gamelist[i].id == gameid) return true;\n        }\n        return false;\n    }\n\n    function isingame(uint gameid, uint teamid) public view returns (bool) {\n        for (uint i = 0; i < gamelist.length; i++) {\n            if (gamelist[i].id == gameid) {\n                return gamelist[i].teams[0] == teamid || gamelist[i].teams[1] == teamid;\n            }\n        }\n    }\n\n    function addteam(uint newteamid) public teamnotexist(newteamid) {\n        teaminfo memory newteam;\n        newteam.id = newteamid;\n        teamlist.push(newteam);\n    }\n\n    function addgame(uint gameid, uint newteam1, uint newteam2, string memory newtitle) public gamenotexist(gameid) \n                     teamexist(newteam1) teamexist(newteam2) {\n        gameinfo memory newgame;\n        newgame.id = gameid;\n        newgame.teams[0] = newteam1;\n        newgame.teams[1] = newteam2;\n        newgame.title = newtitle;\n        gamelist.push(newgame);\n    }\n\n    function setgameresult(uint gameid, bool win1, bool win2) public gameexist(gameid) {\n        for (uint i = 0; i < gamelist.length; i++) {\n            if (gamelist[i].id == gameid) {\n                gamelist[i].win[0] = win1;\n                gamelist[i].win[1] = win2;\n            }\n        }\n    }\n    \n    function getgameresult(uint gameid, uint teamid) public view ingame(gameid, teamid) gameexist(gameid) teamexist(teamid) returns (result) {\n        for (uint i = 0; i < gamelist.length; i++) {\n            if (gamelist[i].id == gameid) {\n                if (gamelist[i].teams[0] == teamid) {\n                    if (gamelist[i].win[0] == true && gamelist[i].win[1] == false) return result.win;\n                    else if (gamelist[i].win[0] == false && gamelist[i].win[1] == true) return result.lose;\n                    else return result.draw;\n                }\n                else {\n                    if (gamelist[i].win[1] == true && gamelist[i].win[0] == false) return result.win;\n                    else if (gamelist[i].win[1] == false && gamelist[i].win[0] == true) return result.lose;\n                    else return result.draw;\n                }\n            }\n        }\n    }\n    \n    function getgametitle(uint gameid) public view gameexist(gameid) returns (string memory) {\n        for (uint i = 0; i < gamelist.length; i++) {\n            if (gamelist[i].id == gameid) return gamelist[i].title;\n        }\n    }\n    \n    function setgametitle(uint gameid, string memory newtitle) public gameexist(gameid) {\n        for (uint i = 0; i < gamelist.length; i++) {\n            if (gamelist[i].id == gameid) {\n                gamelist[i].title = newtitle;\n            }\n        }\n    }\n    \n    function getteamname(uint teamid) public view teamexist(teamid) returns (string memory) {\n        for (uint i = 0; i < teamlist.length; i++) {\n            if (teamlist[i].id == teamid) return teamlist[i].name;\n        }\n    }\n    \n    function setteamname(uint teamid, string memory newname) public teamexist(teamid) {\n        for (uint i = 0; i < teamlist.length; i++) {\n            if (teamlist[i].id == teamid) teamlist[i].name = newname;\n        }\n    }\n\n    function getteamnum() public view returns (uint) {\n        return teamlist.length;\n    }\n\n    function getgamenum() public view returns (uint) {\n        return gamelist.length;\n    }\n\n    // Trade\n    function buyteamwin(uint gameid, uint teamid) public gameexist(gameid) teamexist(teamid) ingame(gameid, teamid) {\n        if (pay(50) == true) {\n            if (getgameresult(gameid, teamid) == result.win) deposit(100);\n        }\n    }\n\n    function buyteamlose(uint gameid, uint teamid) public gameexist(gameid) teamexist(teamid) ingame(gameid, teamid) {\n        if (pay(50) == true) {\n            if (getgameresult(gameid, teamid) == result.lose) deposit(100);\n        }\n    }\n\n    function buygamedraw(uint gameid) public gameexist(gameid) {\n        if (pay(50) == true) {\n            for (uint i = 0; i < gamelist.length; i++) {\n                if (gamelist[i].id == gameid) {\n                    if (getgameresult(gameid, gamelist[i].teams[0]) == result.draw) deposit(100);\n                }\n            }\n        }\n    }\n\n}\n\n\n\n\n\n\n\n\n\n\n",
  "sourcePath": "/Users/zengxianxin/Gambel/contracts/MyContract.sol",
  "compiler": {
    "name": "solc",
    "version": "0.4.24+commit.e67f0147.Emscripten.clang"
  },
  "schemaVersion": "2.0.1",
  "updatedAt": "2018-12-31T11:41:33.093Z"
}